:200000000C947A000C949B070C94C8070C94A2000C94A2000C94A2000C94A2000C94A200CB
:200020000C94A2000C94A2000C94A2000C94A2000C94A2000C94A2000C94A2000C94A200B0
:200040000C94F5070C94A2000C944F090C94A2000C94A2000C94A2000C94A2000C94A20080
:200060000C94FD050C94A200084AD73B3BCE016E84BCBFFDC12F3D6C74319ABD56833DDA3F
:200080003D00C77F11BED9E4BB4C3E916BAAAABE000000803F00000000240027002A0000CA
:2000A000000000250028002B0000000000230026002900040404040404040402020202022C
:2000C000020303030303030102040810204080010204081020010204081020000000070088
:2000E0000201000003040600000000000000000020054B0A11241FBECFEFD8E0DEBFCDBFC5
:2001000011E0A0E0B1E0ECE8FDE102C005900D92A436B107D9F712E0A4E6B1E001C01D9256
:20012000A53DB107E1F710E0C4EFD0E004C02297FE010E94C00EC03FD107C9F70E94850A46
:200140000C94C40E0C94000081E090E0909365018093640108950F931F93182F062F84E0EA
:2001600060E00E94F7081EBD0DB407FEFDCF8EB50EBD0DB407FEFDCF8EB584E061E00E9407
:20018000F7081F910F9108951F93182F106884E060E00E94F7081EBD0DB407FEFDCF8EB50D
:2001A0001EBC0DB407FEFDCF1EB584E061E00E94F708812F1F9108951F9380916401909174
:2001C0006501181619060CF00EC18BE30E94C400182F8CE30E94C400312F20E090E0282B8E
:2001E000392B30936701209366018DE30E94C400182F8EE30E94C400312F20E090E0282B3F
:20020000392B30936901209368018FE30E94C400182F80E40E94C400312F20E090E0282B25
:20022000392B30936B0120936A0181E40E94C400182F82E40E94C400312F20E090E0282B0C
:20024000392B30936D0120936C0183E40E94C400182F84E40E94C400312F20E090E0282BE4
:20026000392B30936F0120936E0185E40E94C400182F86E40E94C400312F20E090E0282BBC
:20028000392B309371012093700187E40E94C400182F88E40E94C400312F20E090E0282B94
:2002A000392B309373012093720182EC92E060E071E00E94C30A60916C0170916D0182EC62
:2002C00092E04AE050E00E94740B82EC92E067E071E00E94C30A82EC92E069E071E00E942E
:2002E000C30A80916601909167016FEF70E00E945A0E82EC92E04AE050E00E94BB0B82EC68
:2003000092E067E071E00E94C30A80916801909169016FEF70E00E945A0E82EC92E04AE09D
:2003200050E00E94BB0B82EC92E067E071E00E94C30A80916A0190916B016FEF70E00E94E5
:200340005A0E82EC92E04AE050E00E94BB0B82EC92E067E071E00E94C30A82EC92E062E189
:2003600071E00E94C30A80916E0190916F016FEF70E00E945A0E82EC92E04AE050E00E9418
:20038000BB0B82EC92E067E071E00E94C30A80917001909171016FEF70E00E945A0E82EC75
:2003A00092E04AE050E00E94BB0B82EC92E067E071E00E94C30A80917201909173016FEFAB
:2003C00070E00E945A0E82EC92E04AE050E00E94BB0B82EC92E067E071E00E94C30A82ECCC
:2003E00092E00E94CE0B1F9108950F931F930E94E00481E00E94CF0484E061E00E94D108F3
:2004000084E061E00E94F7088BE660E80E94AB0064E670E080E090E00E943D088BE663E08B
:200420000E94AB0061E070E080E090E00E943D088AE660E10E94AB0061E070E080E090E0C8
:200440000E943D0889E164E00E94AB0061E070E080E090E00E943D088AE163E00E94AB0077
:2004600061E070E080E090E00E943D088BE160E10E94AB0061E070E080E090E00E943D08F2
:200480008CE168E00E94AB0061E070E080E090E00E943D0888E361E00E94AB0061E070E088
:2004A00080E090E00E943D0887E360E10E94AB0061E070E080E090E00E943D0861E070E0B4
:2004C00080E090E00E943D0880E064EA70E043E050E00E94780702EC12E0C8016AE171E0AE
:2004E0000E94C30A85E70E94C400682FC80170E04AE050E00E94F00B1F910F9108952F9266
:200500003F924F925F926F927F928F929F92AF92BF92CF92DF92EF92FF920F931F93DF9398
:20052000CF93CDB7DEB728970FB6F894DEBF0FBECDBF6091760170917701882777FD809521
:20054000982F0E943C0D6D837E838F8398876091780170917901882777FD8095982F0E9441
:200560003C0D69837A838B839C836D817E818F81988520E030E040E050E00E94F40D7B0183
:200580008C0169817A818B819C810F2EF0E02F2EF0E03F2EF0E04F2EF0E05F2EF02DA201AF
:2005A00091010E94F40D9B01AC01C801B7010E940B0C5B016C01D7FAD094D7F8D094609161
:2005C000740170917501882777FD8095982F0E943C0DA20191010E94F40D3B014C016D81F6
:2005E0007E818F819885A20191010E94F40DA20191010E94F40D9B01AC01C401B3010E94BB
:200600000C0C3B014C0169817A818B819C81A20191010E94F40DA20191010E94F40D9B01DF
:20062000AC01C401B3010E940C0C9B01AC01C601B5010E947F0C60937A0170937B018093E7
:200640007C0190937D0128960FB6F894DEBF0FBECDBFCF91DF911F910F91FF90EF90DF90DA
:20066000CF90BF90AF909F908F907F906F905F904F903F902F9008950F931F9304EC11E003
:200680006091500170915101C8010E94FF04C80162E070E00E944505C80160E070E00E9415
:2006A0004505C8010E9448051F910F910895EF92FF920F931F93DF93CF9300D000D000D0A1
:2006C000CDB7DEB7609150017091510184EC91E00E94FF0484EC91E063E070E00E94450586
:2006E00084EC91E00E944805609150017091510184EC91E046E050E00E94650500E010E082
:200700007E010894E11CF11C0AC084EC91E00E940F05F701E00FF11F80830F5F1F4F84EC0D
:2007200091E00E940905882381F784EC91E00E94480506301105F9F49D8180E02E8130E02F
:20074000822B932B9093750180937401998180E02A8130E0822B932B909377018093760148
:200760009B8180E02C8130E0822B932B909379018093780106C082EC92E067E271E00E94CA
:20078000E50B26960FB6F894DEBF0FBECDBFCF91DF911F910F91FF90EF900895EF92FF9289
:2007A0000F931F930E94DC000E9457030E947F0202EC12E0C80160E071E00E94C30A6091AE
:2007C0006C0170916D01C8014AE050E00E94740B87E0E82E81E0F82EC801B7010E94C30A05
:2007E000C80169E071E00E94C30A80916601909167016FEF70E00E945A0EC8014AE050E04B
:200800000E94BB0BC801B7010E94C30A80916801909169016FEF70E00E945A0EC8014AE0D0
:2008200050E00E94BB0BC801B7010E94C30A80916A0190916B016FEF70E00E945A0EC801A6
:200840004AE050E00E94BB0BC801B7010E94C30AC80162E171E00E94C30A80916E01909179
:200860006F016FEF70E00E945A0EC8014AE050E00E94BB0BC801B7010E94C30A8091700153
:20088000909171016FEF70E00E945A0EC8014AE050E00E94BB0BC801B7010E94C30A809181
:2008A0007201909173016FEF70E00E945A0EC8014AE050E00E94BB0BC801B7010E94C30AFD
:2008C000C80166E371E00E94C30A6091740170917501C8014AE050E00E94BB0BC801B7015D
:2008E0000E94C30A6091760170917701C8014AE050E00E94BB0BC801B7010E94C30A60913C
:20090000780170917901C8014AE050E00E94BB0BC801B7010E94C30AC8010E94CE0B62E3DF
:2009200070E080E090E00E943D081F910F91FF90EF9008950F931F9302EC12E0C80140E098
:2009400052EC61E070E00E948009C8016CE371E00E94E50B0E94F5010E943C0386E061E082
:200960000E94D10886E061E00E94F70885E061E00E94D10885E061E00E94F70868EE73E0A3
:2009800080E090E00E943D0886E060E00E94F70885E060E00E94F7081F910F9108952CB545
:2009A000382F33702C7F322B3CBD2DB590E0959587959595879581702E7F822B8DBD08951C
:2009C0008DE061E00E94D1088BE061E00E94D1088AE061E00E94D1088DE060E00E94F70853
:2009E0008BE060E00E94F7088AE061E00E94F7088CB580618CBD8CB580648CBD089581E088
:200A00008093C3016093A0011092C1011092C201089580919F0190919E01891B0895909132
:200A20009E0180919F01981710F080E00895E92FF0E0E258FE4F80819F5F90939E010895ED
:200A40000895DF93CF930F92CDB7DEB769838091C301882389F08091C201803290F480916B
:200A6000C101E82FF0E0EF55FE4F60838F5F8093C1018093C20105C0CE01019661E00E94B2
:200A8000E2050F90CF91DF9108950E94210508958091A00161EA71E04091C20121E00E9479
:200AA0009F051092C1011092C2011092C3010895413208F040E2862F6EE771E00E946805CF
:200AC00010929E0180939F0108950E9458050895982F413210F040E030C08091C50188231D
:200AE000E1F781E08093C5018FEF809330021092EB0141504093EC014F5F990F91609093D8
:200B0000C60185EE8093BC008091C5018130E1F38091EB01841710F44091EB0120E030E007
:200B20000AC0FB01E20FF31FD901A553BE4F8C9180832F5F3F4F2417A0F3842F08951F9301
:200B4000582F122F413210F081E03AC08091C5018823E1F782E08093C5018FEF80933002A7
:200B60001092EB014093EC01ABECB1E0FB0102C081918D938E2F861B8417D0F3852F90E02F
:200B8000880F991F8093C60185EE8093BC00112321F08091C5018230E1F3809130028F3F37
:200BA00011F480E00DC080913002803211F482E007C080913002803311F084E001C083E061
:200BC0001F910895482F613210F081E008958091C501843011F082E0089560930E02ADEE97
:200BE000B1E0842F9C01F90102C081918D938E2F841B8617D0F380E008951F920F920FB656
:200C00000F9211242F933F934F935F936F937F938F939F93AF93BF93EF93FF938091B900BC
:200C200090E0887F90708036910509F4DCC081369105CCF58832910509F47BC08932910571
:200C4000B4F48031910509F46FC0813191053CF4009709F431C1089709F039C165C088310B
:200C6000910509F466C0809709F031C17DC08034910509F49FC08134910544F4803391050A
:200C800009F47DC0C89709F022C184C08035910509F484C08835910509F491C0883491051C
:200CA00009F015C198C08839910509F4FDC089399105ECF48837910509F495C089379105C7
:200CC0004CF48836910509F48EC08037910509F0FEC089C08838910509F4E6C080399105A0
:200CE00009F487C08038910509F0F1C082C0803B910509F4B0C0813B91054CF4803A9105D6
:200D000009F489C0883A910509F0E1C0A4C0803C910509F4CDC0883C910509F4C9C0883BB8
:200D2000910509F0D4C0ACC08091C6018093BB00B9C09091EB018091EC01981768F49091CE
:200D4000EB01E92FF0E0E553FE4F80818093BB009F5F9093EB01A6C085ED8093BC008091A6
:200D6000BC0084FDFCCFB1C080E28093300285ED8093BC008091BC0084FDFCCFA6C080E330
:200D80008093300285ED8093BC008091BC0084FDFCCF9BC088E3809330028AC08091EB0162
:200DA0009091BB00E82FF0E0E553FE4F90838F5F8093EB019091EB018091EC0171C080919E
:200DC000EB019091BB00E82FF0E0E553FE4F90838F5F8093EB0185ED8093BC008091BC00D1
:200DE00084FDFCCF72C083E08093C50110922F0259C080912F02803208F056C080912F0209
:200E00009091BB00E82FF0E0E15FFD4F90838F5F80932F0247C080912F02803230F4E091AE
:200E20002F02F0E0E15FFD4F108285ED8093BC008091BC0084FDFCCF1092C50160912F02AF
:200E4000E091C901F091CA018FE092E070E0099510922F022DC084E08093C50110920D028E
:200E600010920E02E091C701F091C801099580910E02882329F481E080930E021092ED01A2
:200E800090910D02E92FF0E0E351FE4F80818093BB009F5F90930D0290910D0280910E0269
:200EA000981710F485EC01C085E88093BC000FC085EC8093BC0009C01092300285ED8093E0
:200EC000BC008091BC0084FDFCCF1092C501FF91EF91BF91AF919F918F917F916F915F91E5
:200EE0004F913F912F910F900FBE0F901F901895823000F5E82FF0E0EE0FFF1FEF5CFD4FDB
:200F000071836083882319F08130A1F408C0809169008C7F842B80936900E89A0895809158
:200F20006900440F551F440F551F837F842B80936900E99A08951F920F920FB60F92112480
:200F40002F933F934F935F936F937F938F939F93AF93BF93EF93FF93809131029091320280
:200F6000892B29F0E0913102F09132020995FF91EF91BF91AF919F918F917F916F915F91BD
:200F80004F913F912F910F900FBE0F901F9018951F920F920FB60F9211242F933F934F9317
:200FA0005F936F937F938F939F93AF93BF93EF93FF938091330290913402892B29F0E09154
:200FC0003302F09134020995FF91EF91BF91AF919F918F917F916F915F914F913F912F9127
:200FE0000F900FBE0F901F9018951F920F920FB60F9211242F933F938F939F93AF93BF9321
:201000008091390290913A02A0913B02B0913C0230913D020196A11DB11D232F2D5F2D37D5
:2010200020F02D570196A11DB11D20933D028093390290933A02A0933B02B0933C02809158
:20104000350290913602A0913702B09138020196A11DB11D8093350290933602A0933702E7
:20106000B0933802BF91AF919F918F913F912F910F900FBE0F901F9018959B01AC017FB79D
:20108000F8948091350290913602A0913702B091380266B5A89B05C06F3F19F00196A11D0F
:2010A000B11D7FBFBA2FA92F982F8827860F911DA11DB11D62E0880F991FAA1FBB1F6A95EB
:2010C000D1F7BC012DC0FFB7F8948091350290913602A0913702B0913802E6B5A89B05C033
:2010E000EF3F19F00196A11DB11DFFBFBA2FA92F982F88278E0F911DA11DB11DE2E0880F71
:20110000991FAA1FBB1FEA95D1F7861B970B885E9340C8F2215030404040504068517C4F02
:20112000211531054105510571F60895789484B5826084BD84B5816084BD85B5826085BD82
:2011400085B5816085BDEEE6F0E0808181608083E1E8F0E0108280818260808380818160B6
:201160008083E0E8F0E0808181608083E1EBF0E0808184608083E0EBF0E0808181608083EB
:20118000EAE7F0E08081846080838081826080838081816080838081806880831092C100AC
:2011A0000895482F50E0CA0189539F4FFC0124914D545F4FFA0184918823C1F0E82FF0E002
:2011C000EE0FFF1FEB56FF4FA591B491662341F49FB7F8948C91209582238C939FBF0895B9
:2011E0009FB7F8948C91822B8C939FBF0895482F50E0CA0185529F4FFC012491CA01895399
:201200009F4FFC0134914D545F4FFA019491992309F444C0222351F1233071F0243028F447
:201220002130A1F0223011F514C02630B1F02730C1F02430D9F404C0809180008F7703C062
:20124000809180008F7D8093800010C084B58F7702C084B58F7D84BD09C08091B0008F7777
:2012600003C08091B0008F7D8093B000E92FF0E0EE0FFF1FE156FF4FA591B491662341F45A
:201280009FB7F8948C91309583238C939FBF08959FB7F8948C91832B8C939FBF08951F9252
:2012A0000F920FB60F9211242F933F934F938F939F93EF93FF934091C600E091BE02F091CB
:2012C000BF0231969F012F77307031978091C0029091C1022817390739F0E25CFD4F40832C
:2012E0003093BF022093BE02FF91EF919F918F914F913F912F910F900FBE0F901F901895C0
:20130000CF93DF93EC019A01AB01E885F985203081EE380780E0480780E0580709F449C068
:2013200081E090E00A8802C0880F991F0A94E2F7808360E079E08DE390E00E948F0E215096
:20134000304040405040CA01B90122E030E040E050E00E948F0EEC81FD813083EE81FF815A
:201360002083EA85FB85208141E050E0CA010E8402C0880F991F0A94E2F7282B2083EA859F
:20138000FB852081CA010F8402C0880F991F0A94E2F7282B2083EA85FB858081088802C00E
:2013A000440F551F0A94E2F7842B8083DF91CF910895108220E130E0CECFDC011296ED918D
:2013C000FC911397E058FF4F2191319180819181281B390B2F773070C9010895DC01129610
:2013E000ED91FC911397EE57FF4F2081318192918291E058F0408217930719F42FEF3FEF28
:2014000005C0E20FF31F8081282F30E0C9010895DC011296ED91FC911397DF01AE57BF4F08
:201420002D913C911197E058FF4F80819181E058F0408217930719F42FEF3FEF0BC0E20F30
:20144000F31F80812F5F3F4F2F7730702D933C93282F30E0C9010895DC011296ED91FC912A
:201460001397EE57FF4F80819181929382930895FC01A085B18521898C9190E0022E02C0C4
:20148000959587950A94E2F780FFF6CF0484F585E02D6083089586E591E09093C3028093E5
:2014A000C2028EE392E09093C5028093C40285EC90E09093C7028093C60284EC90E0909317
:2014C000C9028093C80280EC90E09093CB028093CA0281EC90E09093CD028093CC0286EC97
:2014E00090E09093CF028093CE0284E08093D00283E08093D10287E08093D20285E080934D
:20150000D30281E08093D40208950E9496080E949A040E94CE03FDCF0F931F93CF93DF9328
:201520008C01EB0109C02196D801ED91FC910190F081E02DC801099568816623A1F7DF91DE
:20154000CF911F910F910895EF92FF920F931F93CF93DF938C017B01EA010CC0D7016D916E
:201560007D01D801ED91FC910190F081E02DC80109952197209791F7DF91CF911F910F917C
:20158000FF90EF900895DC01ED91FC910280F381E02D099508952F923F924F925F926F9215
:2015A0007F928F929F92AF92BF92CF92DF92EF92FF920F931F93DF93CF93CDB7DEB7A097DA
:2015C0000FB6F894DEBF0FBECDBF1C016A017B01411551056105710549F440E350E060E068
:2015E00070E020E030E00E94850B56C0882499245401422E55246624772401E010E00C0F8B
:201600001D1F080D191DC701B601A30192010E946D0EF80160830894811C911CA11CB11C24
:20162000C701B601A30192010E946D0EC901DA016C017D01C114D104E104F104F1F681E07B
:20164000E82EF12CEC0EFD1EE80CF91C3E010894611C711CD501C4010197A109B1096C0150
:20166000C818D90816C0F601EE0DFF1D40814A3010F4405D01C0495C552747FD5095652F4A
:20168000752FC10120E030E00E94850B0894E108F1086E147F0439F7A0960FB6F894DEBFCB
:2016A0000FBECDBFCF91DF911F910F91FF90EF90DF90CF90BF90AF909F908F907F906F90EB
:2016C0005F904F903F902F900895DC012115310541F4ED91FC910190F081E02D642F099548
:2016E00008950E94CB0A0895EF92FF920F931F939A017B0100E010E0B801A7010E94650B79
:201700001F910F91FF90EF900895EF92FF920F931F93CF93DF93EC017A018B012115310534
:2017200041F4E881F9810190F081E02D642F09951BC02A303105B1F477FF10C04DE250E09C
:2017400060E070E020E030E00E94850B10950095F094E094E11CF11C011D111DCE01B801A7
:20176000A7012AE00E94CB0ADF91CF911F910F91FF90EF900895EF92FF920F931F937B0193
:201780009A010027F7FC0095102FB801A7010E94850B1F910F91FF90EF9008950F931F93DE
:2017A0008C014DE050E060E070E020E030E00E94850BC8014AE050E060E070E020E030E0AA
:2017C0000E94850B1F910F9108950F931F938C010E94C30AC8010E94CE0B1F910F91089569
:2017E000CF92DF92EF92FF920F931F938C016B019A01EE24D7FCE094FE2CB701A6010E9499
:20180000850BC8010E94CE0B1F910F91FF90EF90DF90CF9008955058BB27AA270ED0A3C18E
:2018200094D130F099D120F031F49F3F11F41EF464C10EF4E095E7FB5AC1E92FA5D180F3F5
:20184000BA17620773078407950718F071F49EF5BDC10EF4E0950B2EBA2FA02D0B01B90103
:2018600090010C01CA01A0011124FF27591B99F0593F50F4503E68F11A16F040A22F232FC0
:20188000342F4427585FF3CF469537952795A795F0405395C9F77EF41F16BA0B620B730B33
:2018A000840BBAF09150A1F0FF0FBB1F661F771F881FC2F70EC0BA0F621F731F841F48F491
:2018C000879577956795B795F7959E3F08F0B3CF9395880F08F09927EE0F9795879508955C
:2018E00034D158F080E891E009F49EEF35D128F040E851E059F45EEF09C0FFC067C1E92F5F
:20190000E07842D168F3092E052AC1F3261737074807590738F00E2E07F8E02569F0E025F7
:20192000E0640AC0EF6307F8009407FADB01B9019D01DC01CA01AD01EF9343D014D10AD0D5
:201940005F91552331F02BED3FE049E450FD49EC63CF0895DF93DD27B92FBF7740E85FE34B
:201960001616170648075B0710F4D92F36D19F938F937F936F939BD1E8E6F0E0C1D0F3D094
:201980002F913F914F915F913BD1DD2349F09058A2EA2AED3FE049EC5FE3D0785D274DDF89
:2019A000DF91E1C00CD0DFC0D7D040F0CED030F021F45F3F19F09BC0511109C19EC0E4D0B1
:2019C00098F39923C9F35523B1F3951B550BBB27AA2762177307840738F09F5F5F4F220FA2
:2019E000331F441FAA1FA9F333D00E2E3AF0E0E830D091505040E695001CCAF729D0FE2FAD
:201A000027D0660F771F881FBB1F261737074807AB07B0E809F0BB0B802DBF01FF279358F2
:201A20005F4F2AF09E3F510568F061C0D0C05F3FECF3983EDCF3869577956795B795F79585
:201A40009F5FC9F7880F911D9695879597F90895E1E0660F771F881FBB1F62177307840744
:201A6000BA0720F0621B730B840BBA0BEE1F88F7E0950895E89409C097FB3EF49095809565
:201A8000709561957F4F8F4F9F4F9923A9F0F92F96E9BB279395F695879577956795B795B0
:201AA000F111F8CFFAF4BB0F11F460FF1BC06F5F7F4F8F4F9F4F16C0882311F096E911C02C
:201AC000772321F09EE8872F762F05C0662371F096E8862F70E060E02AF09A95660F771FB4
:201AE000881FDAF7880F9695879597F9089597F99F6780E870E060E008959FEF80EC0895A1
:201B0000DF93CF931F930F93FF92EF92DF927B018C01689405C0DA2EEF0172D0FE01E8949B
:201B2000A5912591359145915591AEF3EF0185DEFE019701A801DA9479F7DF90EF90FF90A8
:201B40000F911F91CF91DF91089500240A941616170618060906089500240A9412161306F0
:201B6000140605060895092E0394000C11F4882352F0BB0F40F4BF2B11F460FF04C06F5FF9
:201B80007F4F8F4F9F4F089557FD9058440F551F59F05F3F71F04795880F97FB991F61F0B5
:201BA0009F3F79F087950895121613061406551FF2CF4695F1DF08C0161617061806991F03
:201BC000F1CF86957105610508940895E894BB2766277727CB0197F908959B01AC0160E00A
:201BE00070E080E89FE3DECE0BD0BDCFAEDF28F0B3DF18F0952309F07ACF7FCF1124E7CF26
:201C0000C3DFA0F3959FD1F3950F50E0551F629FF001729FBB27F00DB11D639FAA27F00DCF
:201C2000B11DAA1F649F6627B00DA11D661F829F2227B00DA11D621F739FB00DA11D621F09
:201C4000839FA00D611D221F749F3327A00D611D231F849F600D211D822F762F6A2F11242A
:201C60009F5750408AF0E1F088234AF0EE0FFF1FBB1F661F771F881F91505040A9F79E3F09
:201C8000510570F034CFA3CF5F3FECF3983EDCF3869577956795B795F795E7959F5FC1F7CA
:201CA000FE2B880F911D9695879597F908959B01AC019ACF97FB092E07260AD077FD04D078
:201CC00049D006D000201AF4709561957F4F0895F6F7909581959F4F0895A1E21A2EAA1B3E
:201CE000BB1BFD010DC0AA1FBB1FEE1FFF1FA217B307E407F50720F0A21BB30BE40BF50BA1
:201D0000661F771F881F991F1A9469F760957095809590959B01AC01BD01CF01089597FB01
:201D2000092E05260ED057FD04D0D7DF0AD0001C38F450954095309521953F4F4F4F5F4F54
:201D40000895F6F790958095709561957F4F8F4F9F4F0895AA1BBB1B51E107C0AA1FBB1F56
:201D6000A617B70710F0A61BB70B881F991F5A95A9F780959095BC01CD010895EE0FFF1FFA
:201D80000590F491E02D0994F894FFCF54656D703A20000900416363656C733A20004779C7
:201DA000726F733A200057686F616D49207265673A2000214552523A204D616720646174A6
:201DC00061004D61673A20004172647550696C6F74204D6520332054657374001E0000009C
:201DE0000000380A8C0AA40ADD09080AEE092C0AFFFFFFFFFFFFFFFFFFFFFFFFFFFFFFFF48
:201E00000F9211242F933F938F939F93AF93BF938091070390910803A0910903B0910A039E
:201E200030910B030196A11DB11D232F2D5F2D3720F02D570196A11DB11D20930B038093E3
:201E4000070390930803A0930903B0930A038091030390910403A0910503B0910603019662
:201E6000A11DB11D8093030390930403A0930503B0930603BF91AF919F918F913F912F919C
:201E80000F900FBE0F901F9018958FB7F89420910703309108034091090350910A038FBF69
:201EA000B901CA010895EF92FF920F931F937B018C018FB7F8944091070350910803609107
:201EC000090370910A038FBF2FB7F8948091070390910803A0910903B0910A032FBF841BC9
:201EE000950BA60BB70BE816F9060A071B0760F71F910F91FF90EF900895789484B5826026
:201F000084BD84B5816084BD85B5826085BD85B5816085BDEEE6F0E0808181608083E1E818
:201F2000F0E0808182608083808181608083E0E8F0E0808181608083E1EBF0E08081846008
:201F40008083E0EBF0E0808181608083EAE7F0E080818460808380818260808380818160AD
:201F600080838081806880831092C1000895282F30E0C9018F5D9E4FFC019491235F3E4F37
:201F8000F9018491882391F0E82FF0E0EE0FFF1FE151FF4FA591B491662329F48C91909521
:201FA00089238C9308958C91892B8C930895482F50E0CA018B5C9E4FFC012491CA018F5D7D
:201FC0009E4FFC019491435F5E4FFA0134913323D1F1222331F1233021F4809180008F7765
:201FE00005C0243031F4809180008F7D8093800018C0213019F484B58F7704C0223021F4D3
:2020000084B58F7D84BD0DC0263021F48091B0008F7705C0273029F48091B0008F7D809322
:20202000B000E32FF0E0EE0FFF1FE750FF4FA591B491662329F48C91909589238C930895A3
:202040008C91892B8C9308951F920F920FB60F9211242F933F934F935F936F937F938F9368
:202060009F93AF93BF93EF93FF934091C600E0918C03F0918D03CF01019660E870E00E943D
:202080007C179C0180918E0390918F032817390739F0E45FFC4F408330938D0320938C032D
:2020A000FF91EF91BF91AF919F918F917F916F915F914F913F912F910F900FBE0F901F9006
:2020C00018955F926F927F928F929F92AF92BF92CF92DF92EF92FF920F931F93CF93DF9360
:2020E000EC013A014B01413482E458078FE0680780E078070CF07FC060E874E88EE190E0B7
:20210000A40193010E94B1172150304040405040CA01B90122E030E040E050E00E94B117DA
:2021200059016A01A6019501209530954095509594E0220F331F441F551F9A95D1F760E064
:2021400074E284EF90E00E94B117CA01B9012FEF30E040E050E00E944917A40193010E94FC
:20216000B117C90181509F4F181619061CF4522E5A9403C055245394521A60E079E08DE3AB
:2021800090E0A40193010E94B1172150304040405040CA01B90122E030E040E050E00E94B2
:2021A000B117209530954095509583E0220F331F441F551F8A95D1F760E074E284EF90E006
:2021C0000E94B117CA01B9012FEF30E040E050E00E944917A40193010E94B117C901815052
:2021E0009F4F181619061CF4822F815002C081E0821B851500F5E885F98581E090E00A8875
:2022000002C0880F991F0A94E2F7808360E079E08DE390E0A40193010E94B1172150304036
:2022200040405040CA01B90122E030E040E050E00E94B11704C0E885F98510829501EC81F9
:20224000FD813083EE81FF812083EA85FB85208141E050E0CA010E8402C0880F991F0A94CE
:20226000E2F7282B2083EA85FB852081CA010F8402C0880F991F0A94E2F7282B2083EA85B4
:20228000FB858081088802C0440F551F0A94E2F7842B8083DF91CF911F910F91FF90EF904D
:2022A000DF90CF90BF90AF909F908F907F906F905F900895DC011296ED91FC911397E05868
:2022C000FF4F8191919180589F4F20813181821B930B60E870E00E947C170895CF93DF93EA
:2022E000DC011296ED91FC911397EF01CE57DF4F48815981E058FF4F80819181E058F040BD
:202300008417950719F42FEF3FEF0CC0E40FF51F2081CA01019660E870E00E947C1799836E
:20232000888330E0C901DF91CF910895FC01A085B18521898C9190E0022E02C09595879584
:202340000A94E2F780FFF6CF0484F585E02D6083089581EB91E090939103809390038CE08D
:2023600093E0909393038093920385EC90E0909395038093940384EC90E090939703809393
:20238000960380EC90E0909399038093980381EC90E090939B0380939A0386EC90E0909308
:2023A0009D0380939C0384E080939E0383E080939F0387E08093A00385E08093A10381E001
:2023C0008093A20308950F931F93CF93DF938C01EB0109C02196D801ED91FC910190F081A1
:2023E000E02DC801099568816623A1F7DF91CF911F910F910895EF92FF920F931F93CF93DA
:20240000DF938C017B01EA010CC0D7016D917D01D801ED91FC910190F081E02DC8010995DC
:202420002197209791F7DF91CF911F910F91FF90EF900895DC01ED91FC910280F381E02DEF
:20244000099508950F931F938C01DC01ED91FC910190F081E02D6DE00995D801ED91FC919A
:202460000190F081E02DC8016AE009951F910F9108950F931F938C010E941A12C8010E9495
:2024800022121F910F9108952F923F924F925F926F927F928F929F92AF92BF92CF92DF92EF
:2024A000EF92FF920F931F93DF93CF93CDB7DEB7A0970FB6F894DEBF0FBECDBF1C016A01C3
:2024C0007B01411551056105710549F4DC01ED91FC910190F081E02D60E3099554C0882423
:2024E00099245401422E55246624772401E010E00C0F1D1F080D191DC701B601A301920193
:202500000E948F17F80160830894811C911CA11CB11CC701B601A30192010E948F17C9015F
:20252000DA016C017D01C114D104E104F104F1F681E0E82EF12CEC0EFD1EE80CF91C3E0179
:202540000894611C711CD501C4010197A109B1096C01C818D90814C0F601EE0DFF1D60814D
:202560006A3010F4605D01C0695CD101ED91FC910190F081E02DC10109950894E108F108B0
:202580006E147F0449F7A0960FB6F894DEBF0FBECDBFCF91DF911F910F91FF90EF90DF90DC
:2025A000CF90BF90AF909F908F907F906F905F904F903F902F9008952AE00E94441208953A
:2025C000EF92FF920F931F93CF93DF93EC017A018B0177FF0FC0E881F9810190F081E02D96
:2025E0006DE2099510950095F094E094E11CF11C011D111DCE01B801A7012AE00E94441234
:20260000DF91CF911F910F91FF90EF900895AB01662757FD6095762F0E94E01208950F93F5
:202620001F938C01AB01662757FD6095762F0E94E012C8010E9422121F910F9108959F92E3
:20264000AF92BF92CF92DF92EF92FF920F931F93CF93DF93EC017A018B01922ECB01BA01A1
:2026600020E030E040E050E00E948814882364F4E881F9810190F081E02DCE016DE209950B
:2026800017FB109517F9109520E030E040E05FE3AA240BC0CA01B90120E030E040E251E4D7
:2026A0000E948F149B01AC01A394A91498F3C801B7010E94AB135B016C010E94FC147B0135
:2026C0008C01CE01B801A7010E94DC12992029F0CE016EE371E00E941A12C801B7010E9479
:2026E00028159B01AC01C601B5010E94AA1320C020E030E040E251E40E9478167B018C01F8
:202700000E94F7145B016C01CC24B7FCC094DC2CCE01B601A5010E94E012C601B5010E9465
:202720002A159B01AC01C801B7010E94AA139A949920F1F6DF91CF911F910F91FF90EF9035
:20274000DF90CF90BF90AF909F90089522E00E941F1308955058BB27AA270ED073C233D26B
:2027600030F038D220F031F49F3F11F41EF4F2C10EF4E095E7FBE8C1E92F86D280F3BA179C
:20278000620773078407950718F071F49EF59EC20EF4E0950B2EBA2FA02D0B01B901900112
:2027A0000C01CA01A0011124FF27591B99F0593F50F4503E68F11A16F040A22F232F342F9F
:2027C0004427585FF3CF469537952795A795F0405395C9F77EF41F16BA0B620B730B840BB8
:2027E000BAF09150A1F0FF0FBB1F661F771F881FC2F70EC0BA0F621F731F841F48F48795B5
:2028000077956795B795F7959E3F08F0B3CF9395880F08F09927EE0F9795879508959F93F6
:202820009F77EEE389379E0720F4E8E6F0E0BAD109C04BD19058A2EA2AED3FE049EC5FE309
:202840009BDF00D20F9007FC90580895BCD158F080E891E009F49EEFBDD128F040E851E0CE
:2028600059F45EEF09C076C131C2E92FE0780CD268F3092E052AC1F32617370748075907DE
:2028800038F00E2E07F8E02569F0E025E0640AC0EF6307F8009407FADB01B9019D01DC016D
:2028A000CA01AD01EF934AD0CDD10AD05F91552331F02BED3FE049E450FD49EC4CCF089564
:2028C000DF93DD27B92FBF7740E85FE31616170648075B0710F4D92F04D29F938F937F93B8
:2028E0006F93BDD2ECE7F0E038D1ACD12F913F914F915F9109D2DD2349F09058A2EA2AED1F
:202900003FE049EC5FE3D0785D2736DFDF919AC1F7D008F481E0089565D1E395A4C10CD0C5
:2029200091C158D140F04FD130F021F45F3F19F00BC15111CCC10EC1A7D198F39923C9F3EB
:202940005523B1F3951B550BBB27AA2762177307840738F09F5F5F4F220F331F441FAA1F97
:20296000A9F333D00E2E3AF0E0E830D091505040E695001CCAF729D0FE2F27D0660F771F99
:20298000881FBB1F261737074807AB07B0E809F0BB0B802DBF01FF2793585F4F2AF09E3FC0
:2029A000510568F0D1C093C15F3FECF3983EDCF3869577956795B795F7959F5FC9F7880F12
:2029C000911D9695879597F90895E1E0660F771F881FBB1F621773078407BA0720F0621BBC
:2029E000730B840BBA0BEE1F88F7E095089504D06894B1116CC108954FD188F09F5790F0FD
:202A0000B92F9927B751A0F0D1F0660F771F881F991F1AF0BA95C9F712C0B13081F056D1E7
:202A2000B1E0089553C1672F782F8827B85F39F0B93FCCF3869577956795B395D9F73EF404
:202A400090958095709561957F4F8F4F9F4F0895E89409C097FB3EF49095809570956195CC
:202A60007F4F8F4F9F4F9923A9F0F92F96E9BB279395F695879577956795B795F111F8CFF2
:202A8000FAF4BB0F11F460FF1BC06F5F7F4F8F4F9F4F16C0882311F096E911C0772321F05A
:202AA0009EE8872F762F05C0662371F096E8862F70E060E02AF09A95660F771F881FDAF7F7
:202AC000880F9695879597F90895DF93CF931F930F938B01EC01E9EAF0E03FD0B3D098017C
:202AE000AE018B01EC0160E070E080E89FE332DE6CD19801AE010F911F91CF91DF9104C1BA
:202B0000990F0008550FAA0BE0E8FEEF16161706E807F907C0F012161306E407F50798F09F
:202B2000621B730B840B950B39F40A2661F0232B242B252B21F408950A2609F4A140A695D5
:202B40008FEF811D811D089597F99F6780E870E060E008959FEF80EC0895DF93CF931F93D6
:202B60000F93FF92EF92DF927B018C01689405C0DA2EEF01C9D0FE01E894A59125913591A8
:202B800045915591AEF3EF01F7DDFE019701A801DA9479F7DF90EF90FF900F911F91CF91C9
:202BA000DF9108959F938F937F936F93FF93EF939B01AC019DD0EF91FF91CFDF2F913F9188
:202BC0004F915F9195C000240A941616170618060906089500240A941216130614060506D3
:202BE0000895B8CF59D0E8F3E894EFEFBB273FE048EC5FE76B3D73078407950708F1FF2770
:202C00009F57B25A6A4D7F40894CF04032F4BE556542704F8643FF4F0894EE1F915030F0D7
:202C2000BB0F661F771F881FFF1FEBCF9EE7882332F0BB0F661F771F881F9A95C1F7939543
:202C4000E09510C1092E0394000C11F4882352F0BB0F40F4BF2B11F460FF04C06F5F7F4FB6
:202C60008F4F9F4F0895EF93E0FF06C0A2EA2AED3FE049EC5FEB80DDE5DF0F90039401FC2F
:202C80009058E1EDF0E08ECF57FD9058440F551F59F05F3F71F04795880F97FB991F61F0F8
:202CA0009F3F79F087950895121613061406551FF2CF4695F1DF08C0161617061806991FF2
:202CC000F1CF86957105610508940895E894BB2766277727CB0197F9089512DF08F48FEF17
:202CE00008959B01AC0160E070E080E89FE317CE0BD0A8CF68DF28F06DDF18F0952309F0D9
:202D000023CF28CF1124E3CFBFDFA0F3959FD1F3950F50E0551F629FF001729FBB27F00D90
:202D2000B11D639FAA27F00DB11DAA1F649F6627B00DA11D661F829F2227B00DA11D621F68
:202D4000739FB00DA11D621F839FA00D611D221F749F3327A00D611D231F849F600D211D2F
:202D6000822F762F6A2F11249F5750408AF0E1F088234AF0EE0FFF1FBB1F661F771F881FC2
:202D800091505040A9F79E3F510570F0DDCE9FCF5F3FECF3983EDCF3869577956795B795E5
:202DA000F795E7959F5FC1F7FE2B880F911D9695879597F908959F9315DF0F9007FCEE5F5E
:202DC00052CF11F40EF4C6CE4DC066DFD0F39923D9F3CEF39F57550B87FF54D056959795C2
:202DE000B0E020F4660F771F881FBB1F1F930F9300249001A0018001F001A0E80E0F1F1FA4
:202E00000A1E511D601B710B8009B50B48F4600F711F801DB51F0E1B1F0B0A0A510907C0A8
:202E20002E0F3F1F4A1F0E0F1F1F0A1E511D660F771F881FBB1FA695F795E795F8F60617C3
:202E4000170708065B07211D311D411D0F911F91B901842F9158880F9695879508959B013D
:202E6000AC0146CF9F3F49F0915028F4869577956795B7959F5F80389F4F880F969587958B
:202E800097F9089591505040660F771F881FD2F70895629FD001739FF001829FE00DF11D8B
:202EA000649FE00DF11D929FF00D839FF00D749FF00D659FF00D9927729FB00DE11DF91F12
:202EC000639FB00DE11DF91FBD01CF0111240895AA1BBB1B51E107C0AA1FBB1FA617B7070B
:202EE00010F0A61BB70B881F991F5A95A9F780959095BC01CD01089597FB092E07260AD02F
:202F000077FD04D0E5DF06D000201AF4709561957F4F0895F6F7909581959F4F0895A1E205
:202F20001A2EAA1BBB1BFD010DC0AA1FBB1FEE1FFF1FA217B307E407F50720F0A21BB30B30
:202F4000E40BF50B661F771F881F991F1A9469F760957095809590959B01AC01BD01CF01EF
:202F6000089597FB092E05260ED057FD04D0D7DF0AD0001C38F450954095309521953F4F1F
:202F80004F4F5F4F0895F6F790958095709561957F4F8F4F9F4F0895EE0FFF1F0590F491BA
:202FA000E02D0994F894FFCF21212100414E303A002C414E313A002C414E323A002C414EA9
:202FC000333A002C414E343A002C414E353A002C00524C4C3A002C5043483A002C59415783
:202FE0003A002A2A2A002E000607030001020100FFFFFFFF0100FFFF01000AD7A33C00001B
:2030000034430000803F0000803F0000000000000000000000000000803F000000000000FC
:203020000000000000000000803F000000000000803F000000400000404000008040000092
:20304000A0400000C0400000E0400000004101000000B44201000000009611E311FB110090
:20306000FFFFFFFFFFFFFFFFFFFFFFFFFFFFFFFFFFFFFFFFFFFFFFFFFFFFFFFFFFFFFFFF70
:203080003A002C4558323A002C4558333A002C4558343A002C4558353A002C4558363A00E3
:2030A0002C4558373A002C4558383A00524C4C3A002C5043483A002C5941573A002A2A2A61
:2030C000002E000000803F000080BF000080BF000080BF0000803F000080BF0000344300D1
:2030E00000803F0000803F0000000000000000000000000000803F00000000000000000093
:203100000000000000803F000000000000803F0000004000004040000080400000A04000D1
:2031200000C0400000E0400000004101000000B4420100000000E91136124E12FFFFFFFF98
:20314000FFFFFFFFFFFFFFFFFFFFFFFFFFFFFFFFFFFFFFFFFFFFFFFFFFFFFFFFFFFFFFFF8F
:20316000FFFFFFFFFFFFFFFFFFFFFFFFFFFFFFFFFFFFFFFFFFFFFFFFFFFFFFFFFFFFFFFF6F
:20318000FFFFFFFFFFFFFFFFFFFFFFFFFFFFFFFFFFFFFFFFFFFFFFFFFFFFFFFFFFFFFFFF4F
:2031A000FFFFFFFFFFFFFFFFFFFFFFFFFFFFFFFFFFFFFFFFFFFFFFFFFFFFFFFFFFFFFFFF2F
:207800000C94343C0C94513C0C94513C0C94513C0C94513C0C94513C0C94513C0C94513C1D
:207820000C94513C0C94513C0C94513C0C94513C0C94513C0C94513C0C94513C0C94513CE0
:207840000C94513C0C94513C0C94513C0C94513C0C94513C0C94513C0C94513C0C94513CC0
:207860000C94513C0C94513C11241FBECFEFD8E0DEBFCDBF11E0A0E0B1E0ECE9FFE702C07E
:2078800005900D92A230B107D9F712E0A2E0B1E001C01D92AD30B107E1F70E942D3D0C94CC
:2078A000CC3F0C94003C982F9595959595959595905D8F708A307CF0282F295A8091C000B5
:2078C00085FFFCCF9093C6008091C00085FFFCCF2093C6000895282F205DF0CF982F8091CF
:2078E000C00085FFFCCF9093C6000895EF92FF920F931F93EE24FF2487018091C00087FD7B
:2079000017C00894E11CF11C011D111D81E4E81682E4F8068FE0080780E0180770F3E09106
:207920000401F091050109958091C00087FFE9CF8091C6001F910F91FF90EF9008950E949A
:20794000763C982F8091C00085FFFCCF9093C60091362CF490330CF09053892F08959755DB
:20796000892F08951F930E949F3C182F0E949F3C1295107F810F1F9108951F93182F882308
:2079800021F00E94763C1150E1F71F9108951F93182F0E94763C803249F0809103018F5FC1
:2079A000809303018530C1F01F9108958091C00085FFFCCF84E18093C6008091C00085FF4A
:2079C000FCCF1093C6008091C00085FFFCCF80E18093C6001F910895E0910401F0910501CF
:2079E00009951F9108950E94763C803241F0809103018F5F80930301853081F00895809177
:207A0000C00085FFFCCF84E18093C6008091C00085FFFCCF80E18093C6000895E0910401AC
:207A2000F09105010995089540E951E08823A1F02D9A28EE33E0FA013197F1F72150304072
:207A4000D1F72D9828EE33E0FA013197F1F721503040D1F7815061F708953F924F925F92B3
:207A60006F927F928F929F92AF92BF92CF92DF92EF92FF920F931F93CF93DF93000080E1A3
:207A80008093C4001092C50088E18093C10086E08093C2005098589A259A81E00E94143D43
:207AA00024E1F22E9EE1E92E85E9D82E0FE0C02E10E1B12EAA24A394B1E49B2EA6E58A2E44
:207AC000F2E57F2EE0E26E2E79E4572E63E5462E50E5352E0E94763C8033B1F18133B9F187
:207AE000803409F46FC0813409F476C0823409F485C0853409F488C0803531F1823521F128
:207B0000813511F1853509F485C0863509F48DC0843609F496C0843709F403C1853709F46A
:207B200072C1863709F466C0809103018F5F80930301853079F6E0910401F0910501099559
:207B40000E94763C803351F60E94F33CC3CF0E94763C803249F78091C00085FFFCCFF0928C
:207B6000C6008091C00085FFFCCF9092C6008091C00085FFFCCF8092C6008091C00085FFEA
:207B8000FCCF7092C6008091C00085FFFCCF6092C6008091C00085FFFCCF5092C6008091A1
:207BA000C00085FFFCCF4092C6008091C00085FFFCCF3092C6008091C00085FFFCCFB09214
:207BC000C60088CF0E94763C863808F4BDCF0E94763C0E94F33C7ECF0E94763C803809F473
:207BE0009CC0813809F40BC1823809F43CC1883909F48FC080E00E94C73C6CCF84E10E949F
:207C0000BD3C0E94F33C66CF85E00E94BD3C0E94F33C60CF0E94763C809306010E94763CA3
:207C2000809307010E94F33C55CF0E94763C803309F41DC183E00E94BD3C80E00E94C73C4F
:207C400049CF0E94763C809309020E94763C8093080280910C028E7F80930C020E94763C88
:207C6000853409F415C18091080290910902892B89F000E010E00E94763CF801E85FFE4F53
:207C800080830F5F1F4F80910802909109020817190788F30E94763C803209F045CF8091E0
:207CA0000C0280FF01C16091060170910701660F771F7093070160930601A0910802B091E8
:207CC00009021097C9F0E8E0F1E09B01AD014E0F5F1FF999FECF32BD21BD819180BDFA9A6C
:207CE000F99A2F5F3F4FE417F50799F76A0F7B1F70930701609306018091C00085FFFCCF16
:207D0000F092C6008091C00085FFFCCFB092C600E1CE83E00E94C73CDDCE82E00E94C73C8A
:207D2000D9CE0E94763C809309020E94763C809308028091060190910701880F991F909306
:207D40000701809306010E94763C853409F4A6C080910C028E7F80930C020E94763C80323E
:207D600009F0B8CE8091C00085FFFCCFF092C600609108027091090261157105B9F140E05F
:207D800050E080910C02A82FA170B82FB27011C0BB2309F45CC0E0910601F0910701319613
:207DA000F0930701E09306014F5F5F4F46175707E8F4AA2369F3F999FECF209106013091CA
:207DC000070132BD21BDF89A90B58091C00085FFFCCF9093C6002F5F3F4F30930701209354
:207DE00006014F5F5F4F4617570718F38091C00085FDE5CE8091C00085FFF8CFE0CE81E029
:207E00000E94C73C67CE0E94763C803209F08CCE8091C00085FFFCCFF092C6008091C000F6
:207E200085FFFCCFE092C6008091C00085FFFCCFD092C6008091C00085FFFCCFC092C6003B
:207E40008091C00085FFFCCFB092C60043CEE0910601F091070194918091C00085FFFCCFA3
:207E60009093C6009CCF80E10E94C73C33CE0E94763C0E94763C182F0E94763C112309F433
:207E800083C0113009F484C08FE00E94C73C22CE80910C02816080930C02E5CE80910C0226
:207EA000816080930C0259CF809107018823880F880B8A2180930B0280910601909107019E
:207EC000880F991F90930701809306018091080280FF09C0809108029091090201969093AA
:207EE000090280930802F894F999FECF1127E0910601F0910701C8E0D1E0809108029091A1
:207F00000902103091F40091570001700130D9F303E000935700E895009157000170013067
:207F2000D9F301E100935700E895099019900091570001700130D9F301E000935700E8954C
:207F40001395103498F011270091570001700130D9F305E000935700E8950091570001707A
:207F60000130D9F301E100935700E8953296029709F0C7CF103011F00296E5CF11248091F8
:1E7F8000C00085FFB9CEBCCE8EE10E94C73CA2CD85E90E94C73C9ECDF894FFCF8000B3
:00000001FF
